:100000000C942A000C9447000C9447000C94470071
:100010000C9447000C9447000C9447000C94470044
:100020000C9447000C9447000C9447000C948300F8
:100030000C9447000C9447000C9447000C94470024
:100040000C9447000C9447000C9447000C94470014
:100050000C94470011241FBECFE5D8E0DEBFCDBF12
:1000600010E0A0E6B0E0E2E8F2E002C005900D92F8
:10007000A038B107D9F720E0A0E8B0E001C01D9298
:10008000AB38B207E1F70E94A9000C943F010C9431
:10009000000090918000E92FF0E0EF57FF4F808340
:1000A0009F5F983018F4909380000895109280001C
:1000B0000895CF93DF93ACE6B0E0C1E8D0E08D9136
:1000C00088BBE991F0E0EC58FF4F80818BBB8FEC4F
:1000D00097E00197F1F700C0000090E0A437B9075E
:1000E00071F7DF91CF9108958FEF8ABB1BBA87BB61
:1000F00018BA90EF91BB82BB91E099BF94E093BF97
:1001000082BF1CBE08951F920F920FB60F9211244A
:100110002F933F934F935F936F937F938F939F930F
:10012000AF93BF93EF93FF930E9459008FEF82BF6D
:10013000FF91EF91BF91AF919F918F917F916F91BF
:100140005F914F913F912F910F900FBE0F901F9095
:1001500018950E9474007894C0EFDFEF1FEE0FED4A
:100160005FEBF52E6FE7E62E73E0D72EE2E0CE2EA2
:10017000BB24B394C1BBD2BB82B38F7082BB0000DF
:1001800080B38F70809389008F30B1F78FE39CE943
:100190000197F1F700C0000080B38F708093890051
:1001A0008F30A1F39FEF29EF80E0915020408040F5
:1001B000E1F700C0000080B38F70809389008F301A
:1001C00029F312BB000080B38F70809389008F30B9
:1001D000A9F010928A00809189008E3089F5E09113
:1001E0008A008E2F90E0FC01EE0FFF1FE80FF91F31
:1001F000E05AFF4F80810E944900BCCF02BB000043
:1002000080B38F70809389008F3019F0B0928A008C
:10021000E2CFF2BA000080B38F70809389008F30F4
:1002200019F0C0928A00D7CFE2BA000080B38F7075
:10023000809389008F3009F49DCFD0928A00CBCF74
:100240008D3069F4E0918A008E2F90E0FC01EE0F72
:10025000FF1FE80FF91FE05AFF4F8181CCCF8B3091
:1002600009F088CFE0918A008E2F90E0FC01EE0F1C
:10027000FF1FE80FF91FE05AFF4F8281BCCFF894AF
:02028000FFCFAE
:1002820001020304050607080908000080010204B0
:1002920008102040BF065B4F666D7D077F6F000030
:00000001FF
